:020000040800F2
:1000000000280020790F0008C90F0008C90F000858
:10001000C90F0008C90F0008C90F00080000000040
:10002000000000000000000000000000C90F0008F0
:10003000C90F000800000000C90F0008C90F000820
:10004000C90F0008C90F0008C90F0008C90F000830
:10005000C90F0008C90F000889040008AD04000892
:10006000D1040008F504000819050008C90F0008AC
:10007000C90F0008C90F0008C90F0008C90F000800
:10008000C90F0008C90F0008C90F0008C90F0008F0
:10009000C90F0008C90F0008C90F00083D05000876
:1000A000C90F0008C90F0008C90F0008C90F0008D0
:1000B000C90F0008C90F0008C90F0008610C00082B
:1000C0006D0C0008C90F0008C90F0008E10D0008F9
:1000D0003D0E0008990E0008AD0E0008C90F00087B
:1000E000E5050008C90F000800000000C90F00085E
:1000F000C90F0008C90F0008C90F0008C90F000880
:10010000C90F0008C90F0008C90F0008C90F00086F
:10011000C90F0008C90F0008C90F0008C90F00085F
:10012000C90F0008C90F0008C90F0008C90F00084F
:1001300010B5054C237833B9044B13B10448AFF321
:1001400000800123237010BD00000020000000008B
:100150001410000808B5034B1BB103490348AFF363
:10016000008008BD000000000400002014100008FA
:1001700080B588B000AF4FF48063BB61094B3B6032
:100180000023BB600023FB6100237B60064800F076
:1001900091FB3B461946044800F086FA00BF203721
:1001A000BD4680BDA08601000054004080B5C8B0A7
:1001B00002AF07F58C73A3F58673186007F58C738F
:1001C000A3F58873196007F58C73A3F211131A70E5
:1001D00007F58C73A3F586731B681B0ADAB207F563
:1001E0008C73A3F582731A7007F58C73A3F586736D
:1001F0001B68DAB207F58C73A3F582735A70022379
:10020000C7F8143117E0D7F81431023B07F58C72A8
:10021000A2F5887212681344197807F58C73A3F558
:100220008272D7F8143113440A461A70D7F8143181
:100230000133C7F8143107F58C73A3F211131B783F
:100240000133D7F814219A42DDDD07F58C73A3F250
:1002500011131B780233DBB207F114020021019164
:10026000012100915D21044800F034FC0023184670
:1002700007F58C77BD4680BD0054004080B588B03E
:1002800002AFF860B9601346FB71FB681B0ADBB272
:100290003B75FB68DBB27B7507F114020023019309
:1002A0000123009302235D21084800F013FCFB7931
:1002B0000122019201220092BA685D21034800F0F8
:1002C0005FFC002318461837BD4680BD005400402F
:1002D00080B483B000AF0346FB710B46BB7113467D
:1002E0007B71FB79032B00F08280032B00F3C0802D
:1002F000012B02D0022B3ED0BAE0BB79072B17D8D6
:100300005E4B1B68BA7992000F2101FA02F2D243C8
:1003100011465A4A0B401360584B1B687979BA79D9
:10032000920001FA02F21146544A0B4313609AE01C
:10033000BB79072B40F29780BB790F2B00F293809B
:10034000BB79083BBB714D4B5B68BA7992000F21BA
:1003500001FA02F2D2431146484A0B405360474B20
:100360005B687979BA79920001FA02F21146434A40
:100370000B43536077E0BB79072B17D8404B1B68C2
:10038000BA7992000F2101FA02F2D24311463C4A97
:100390000B4013603A4B1B687979BA79920001FAE5
:1003A00002F21146364A0B4313605EE0BB79072B1D
:1003B0005BD9BB790F2B58D8BB79083BBB71304B4D
:1003C0005B68BA7992000F2101FA02F2D24311461A
:1003D0002B4A0B4053602A4B5B687979BA799200BB
:1003E00001FA02F21146264A0B4353603DE0BB7905
:1003F000072B17D8234B1B68BA7992000F2101FAFB
:1004000002F2D24311461F4A0B4013601D4B1B687A
:100410007979BA79920001FA02F21146194A0B432E
:10042000136024E0BB79072B21D9BB790F2B1ED891
:10043000BB79083BBB71134B5B68BA7992000F2103
:1004400001FA02F2D24311460E4A0B4053600D4BA3
:100450005B687979BA79920001FA02F21146094A89
:100460000B43536003E000BF02E000BF00E000BFA9
:1004700000BF0C37BD4680BC704700BF000801407C
:10048000000C01400010014080B500AF054B5B69D6
:10049000044A43F001035361034B1B68984700BFB4
:1004A00080BD00BF000401401C00002080B500AFEB
:1004B000054B5B69044A43F002035361034B5B68DD
:1004C000984700BF80BD00BF000401401C00002011
:1004D00080B500AF054B5B69044A43F004035361E8
:1004E000034B9B68984700BF80BD00BF00040140DC
:1004F0001C00002080B500AF054B5B69044A43F047
:1005000008035361034BDB68984700BF80BD00BF01
:10051000000401401C00002080B500AF054B5B6962
:10052000044A43F010035361034B1B69984700BF13
:1005300080BD00BF000401401C00002080B500AF5A
:10054000264B5B6903F02003002B08D0234B5B692B
:10055000224A43F020035361214B5B6998471F4BAC
:100560005B6903F04003002B08D01C4B5B691B4AFE
:1005700043F0400353611A4B9B699847174B5B69E3
:1005800003F08003002B08D0144B5B69134A43F03F
:1005900080035361124BDB699847104B5B6903F48E
:1005A0008073002B08D00D4B5B690C4A43F48073B9
:1005B00053610B4B1B6A9847084B5B6903F400734C
:1005C000002B08D0054B5B69044A43F40073536168
:1005D000034B5B6A984700BF80BD00BF0004014029
:1005E0001C00002080B500AF2D4B5B6903F48063D5
:1005F000002B08D02A4B5B69294A43F4806353617E
:10060000284B9B6A9847264B5B6903F40063002BD9
:1006100008D0234B5B69224A43F400635361214BAA
:10062000DB6A98471E4B5B6903F48053002B08D0AC
:100630001B4B5B691A4A43F480535361194B1B6B84
:100640009847174B5B6903F40053002B08D0144BF9
:100650005B69134A43F400535361124B5B6B984739
:100660000F4B5B6903F48043002B08D00C4B5B6994
:100670000B4A43F4804353610A4B9B6B9847084BEA
:100680005B6903F40043002B08D0054B5B69044A07
:1006900043F400435361034BDB6B984700BF80BDBD
:1006A000000401401C000020B0B586B000AF7860A7
:1006B000396000237B6100233B610023FB60002342
:1006C000BB607B68744A93420BD1744B3A6803F168
:1006D000200415460FCD0FC495E80F0084E80F00E5
:1006E00012E07B686E4A93420ED16C4B3A6803F17C
:1006F000400415460FCD0FC495E80F0084E80F00A5
:100700001621012000F0C8FA3B689B68002B40F0DE
:1007100086807B685A687B6913437B617B6923F021
:100720003F037B6100F048FB0346FB60FB685D4ACA
:10073000A2FB03239B0C3B613A697B6913437B61FA
:100740007A697B685B681A437B685A6000237B6127
:100750007B681B6823F001027B681A603B681B689A
:100760004CF25032934204D03B681B684E4A93428D
:100770001AD1FA683B681B685B00B2FBF3F39BB2CB
:10078000BB60BA687B6913437B617A697B68DB690C
:100790001A437B68DA6100237B613B695A1C7B68E2
:1007A0001B6A1A437B681A627B681B687B613B6823
:1007B0009B699AB23B685B689BB213439AB23B68F1
:1007C0009B689BB213439BB21A467B6913437B61C0
:1007D0007A697B681A6000237B613B689B89012BE7
:1007E0000BD101237B613B681B8A5B001A467B6946
:1007F00013437B617B68DB687B6100237B613B6823
:10080000DB895B001A467B6913437B613B685B694C
:10081000DA037B6913437B617A697B689A603B6882
:10082000DB69002B2ED07B685B6843F480627B68B9
:100830005A607B685B6843F480727B685A607B68AF
:100840005B6843F400727B685A607B68124A93428B
:100850000CD1164B1B68154A43F000431360144B30
:100860001B68134A43F0010313600BE0104B1B6835
:100870000F4A43F0020313600D4B1B680C4A43F010
:10088000040313607B681B6843F001027B681A60F5
:1008900000BF1837BD46B0BD0054004058000020CE
:1008A0000058004083DE1B43A086010000E100E009
:1008B00004E100E080B582B000AF78607B68104A48
:1008C00093420AD10D2206210220FFF701FD0D22DD
:1008D00007210220FFF7FCFC0DE07B68094A9342E8
:1008E00009D10D220A210220FFF7F2FC0D220B2173
:1008F0000220FFF7EDFC00BF0837BD4680BD00BFFA
:10090000005400400058004080B582B000AF7860CD
:100910000B46FB701346BB70BB78002B07D100BFA2
:100920000021786800F070F80346002BF8D1FB78BE
:10093000012B06D17B681B6843F480727B681A60C8
:1009400008E0FB78002B05D17B681B6823F48072DC
:100950007B681A6000BF0837BD4680BD80B483B095
:1009600000AF78600B467B8013467B707B885B0012
:100970007B807B78002B04D07B8843F001037B8055
:1009800003E07B8823F001037B807A887B681A610F
:1009900000BF0C37BD4680BC704780B483B000AF49
:1009A00078600B46FB70FB78002B06D07B681B68D9
:1009B00043F400727B681A6005E07B681B6823F4CF
:1009C00000727B681A6000BF0C37BD4680BC704760
:1009D00080B483B000AF78600B46FB70FB78002BCF
:1009E00006D07B681B6843F480627B681A6005E070
:1009F0007B681B6823F480627B681A6000BF0C3739
:100A0000BD4680BC7047000080B487B000AF7860FE
:100A1000396000233B610023FB753B68042B0FD832
:100A20003B68042B4DD801A252F823F04B0A000872
:100A3000590A0008670A0008A70A0008B50A000852
:100A40003B68234A934218D03BE07B689B69DBB24A
:100A500003F00203FB7534E07B685B69DBB203F0F3
:100A60000103FB752DE07B685B69DBB203F00203D9
:100A7000FB757B689B693B6123E07B685B69FB607E
:100A80007B689B69BB60BB681B04BB60FA68BB6882
:100A90001343002B04D03B68002B01D0012300E05E
:100AA0000023FB750DE07B685B69DBB223F07F03FD
:100AB000FB7506E07B685B69DBB203F04003FB7506
:100AC00000BFFB7D18461C37BD4680BC704700BF89
:100AD0008000070080B586B000AFF8607A601A46E3
:100AE0000B467B8113467B7297F824301A4601210E
:100AF000F868FFF709FF00BF0121F868FFF784FFDE
:100B00000346002BF8D07B8900221946F868FFF7CE
:100B100025FF00BF0221F868FFF776FF0346002B90
:100B2000F8D000BF1549F868FFF76EFF0346002BA9
:100B3000F8D000237B6111E07B697A6813441B784D
:100B40001A46FB681A6100BF0321F868FFF75CFFD3
:100B50000346002BF8D07B6901337B617B7A7A698D
:100B60009A42E9DB97F82030012B03D10121F86884
:100B7000FFF713FF00BF1837BD4680BD8000070098
:100B800080B586B000AFF8607A601A460B467B816C
:100B900013467B72FB68304A934201D1012300E087
:100BA0000223FB7497F824301A460121F868FFF7F6
:100BB000ABFE00BF0121F868FFF726FF0346002BBC
:100BC000F8D07B8901221946F868FFF7C7FE00BFFD
:100BD0000221F868FFF718FF0346002BF8D0012127
:100BE000F868FFF7F5FE7B7A002B1CD07B7A7B61DF
:100BF00012E000BF0421F868FFF706FF0346002B50
:100C0000F8D0FB681B69DAB27B681A707B68013325
:100C10007B607B69013B7B617B69012BE9DC002107
:100C2000F868FFF7D5FE97F82030012B03D101219A
:100C3000F868FFF7B2FEFB7C084A5B0113441833E7
:100C40001B68B3F5806F03D10121F868FFF7C0FE80
:100C500000BF1837BD4680BD00540040580000203A
:100C600080B400AF00BFBD4680BC704780B400AF09
:100C700000BFBD4680BC704780B400AF044B8122EA
:100C80001A60044B00221A6000BFBD4680BC70474A
:100C9000001002400410024080B483B000AF03464D
:100CA0000A46FB711346BB71FB791F2B2AD8FB79CF
:100CB000022B1CD0022B25DC002B02D0012B0BD0E9
:100CC00020E0134B1B68BA79012101FA02F21146A8
:100CD0000F4A0B43136015E00E4B1B68BA790121D4
:100CE00001FA02F211460B4A0B4313600AE00A4B69
:100CF0001B68BA79012101FA02F21146064A0B4338
:100D0000136000BF00BF0C37BD4680BC704700BFFA
:100D1000141002401C1002401810024080B483B02E
:100D200000AF00237B60154B1B689B0803F0030397
:100D3000022B0ED0022B1AD8002B02D0012B04D08C
:100D400015E00F4B7B607B6812E00E4B7B607B688D
:100D50000EE00A4B1B689B0C03F00F030A4AD35C9E
:100D60001A460A4B02FB03F37B607B6800E07B685A
:100D700018460C37BD4680BC704700BF04100240C7
:100D800000127A000024F4004C10000800093D0015
:100D900080B500AFFFF7C2FF0246054B1B681B0979
:100DA00003F00F030349CB5C22FA03F3184680BD1E
:100DB000041002403C10000880B500AFFFF7E8FFC8
:100DC0000246054B1B681B0A03F007030349CB5C73
:100DD00022FA03F3184680BD0410024034100008C4
:100DE00080B582B000AF134B9B685B0803F0010332
:100DF000DAB23B7962F300033B710E4B9B6803F060
:100E00000103DAB23B7962F341033B71094B9B6802
:100E10001B0903F00103DAB23B7962F382033B71F1
:100E2000054B1B685B693879984700BF0837BD469A
:100E300080BD00BF003001409800002080B582B026
:100E400000AF134B9B685B0803F00103DAB23B79F8
:100E500062F300033B710E4B9B6803F00103DAB2AF
:100E60003B7962F341033B71094B9B681B0903F01B
:100E70000103DAB23B7962F382033B71054B5B6895
:100E80005B693879984700BF0837BD4680BD00BF11
:100E9000003800409800002080B500AF024B1B686E
:100EA000DB68984700BF80BDA000002080B400AF81
:100EB00000BFBD4680BC704780B500AFFFF7DCFEC9
:100EC0000E210220FFF7E8FE02210220FFF7E4FED8
:100ED00003210220FFF7E0FE15210120FFF7DCFED1
:100EE00000210220FFF7D8FE0C210220FFF7D4FEDC
:100EF00000BF80BD80B584B000AFFFF7DDFF1D4AA5
:100F000007F1080392E803001860043319800233E4
:100F10000A0C1A7000233B603B1D00210A461A8010
:100F20000A469A70FFF724F907F1080307221946C9
:100F3000AF20FFF73BF93B4607221946AF20FFF7EA
:100F40009DF90A233B720B237B720C23BB720D238A
:100F5000FB7207F108030422194640F6FF70FFF701
:100F600025F907F108030422194640F6FF70FFF740
:100F700085F9FEE72C1000080D488546AFF3008088
:100F80000C480D490D4A002302E0D458C4500433E4
:100F9000C4188C42F9D30A4A0A4C002301E01360BA
:100FA0000432A242FBD300F011F8FFF7A3FFFEE7E3
:100FB000002800200000002000000020641000082D
:100FC00000000020A4000020FEE7000070B500260D
:100FD0000C4D0D4C641BA410A64209D100F01AF868
:100FE00000260A4D0A4C641BA410A64205D170BD10
:100FF00055F8043B98470136EEE755F8043B98470F
:101000000136F2E75C1000085C1000085C10000874
:1010100060100008F8B500BFF8BC08BC9E467047D9
:0C102000F8B500BFF8BC08BC9E46704745
:10102C00010203040506070000000000010203048E
:10103C00000000000000000001020304060708097C
:10104C0002030405060708090A0B0C0D0E0F1010FD
:04105C005501000832
:041060003101000852
:0400000508000F7967
:00000001FF
