:020000040800F2
:1000000000280020690D0008B90D0008B90D00088E
:10001000B90D0008B90D0008B90D00080000000076
:10002000000000000000000000000000B90D000802
:10003000B90D000800000000B90D0008B90D000856
:10004000B90D0008B90D0008B90D0008B90D000878
:10005000B90D0008B90D00081D040008410400088E
:100060006504000889040008AD040008B90D000803
:10007000B90D0008B90D0008B90D0008B90D000848
:10008000B90D0008B90D0008B90D0008B90D000838
:10009000B90D0008B90D0008B90D0008D104000819
:1000A000B90D0008B90D0008B90D0008B90D000818
:1000B000B90D0008B90D0008B90D0008B90D000808
:1000C000B90D0008B90D0008B90D0008AD09000808
:1000D000090A0008110C0008250C0008B90D0008D9
:1000E00079050008B90D000800000000B90D0008EE
:1000F000B90D0008B90D0008B90D0008B90D0008C8
:10010000B90D0008B90D0008B90D0008B90D0008B7
:10011000B90D0008B90D0008B90D0008B90D0008A7
:10012000B90D0008B90D0008B90D0008B90D000897
:1001300010B5054C237833B9044B13B10448AFF321
:1001400000800123237010BD00000020000000008B
:10015000040E000808B5034B1BB103490348AFF375
:10016000008008BD0000000004000020040E00080C
:1001700080B483B000AF0346FB710B46BB711346DE
:100180007B71FB79032B00F08280032B00F3C0808E
:10019000012B02D0022B3ED0BAE0BB79072B17D837
:1001A0005E4B1B68BA7992000F2101FA02F2D2432A
:1001B00011465A4A0B401360584B1B687979BA793B
:1001C000920001FA02F21146544A0B4313609AE07E
:1001D000BB79072B40F29780BB790F2B00F29380FD
:1001E000BB79083BBB714D4B5B68BA7992000F211C
:1001F00001FA02F2D2431146484A0B405360474B82
:100200005B687979BA79920001FA02F21146434AA1
:100210000B43536077E0BB79072B17D8404B1B6823
:10022000BA7992000F2101FA02F2D24311463C4AF8
:100230000B4013603A4B1B687979BA79920001FA46
:1002400002F21146364A0B4313605EE0BB79072B7E
:100250005BD9BB790F2B58D8BB79083BBB71304BAE
:100260005B68BA7992000F2101FA02F2D24311467B
:100270002B4A0B4053602A4B5B687979BA7992001C
:1002800001FA02F21146264A0B4353603DE0BB7966
:10029000072B17D8234B1B68BA7992000F2101FA5C
:1002A00002F2D24311461F4A0B4013601D4B1B68DC
:1002B0007979BA79920001FA02F21146194A0B4390
:1002C000136024E0BB79072B21D9BB790F2B1ED8F3
:1002D000BB79083BBB71134B5B68BA7992000F2165
:1002E00001FA02F2D24311460E4A0B4053600D4B05
:1002F0005B687979BA79920001FA02F21146094AEB
:100300000B43536003E000BF02E000BF00E000BF0A
:1003100000BF0C37BD4680BC704700BF00080140DD
:10032000000C01400010014080B483B000AF0346D0
:10033000FB710B46BB7113467B71FB79032B40D0DD
:10034000032B60DC012B02D0022B1DD05BE07B79FC
:10035000012B0AD12E4BDB68BA79012101FA02F296
:1003600011462B4A0B43D36048E07B79002B45D1E3
:10037000274BDB68BA79012101FA02F2D243114618
:10038000234A0B40D36039E07B79012B0AD1214B02
:10039000DB68BA79012101FA02F211461D4A0B43CA
:1003A000D3602DE07B79002B2AD11A4BDB68BA7918
:1003B000012101FA02F2D2431146164A0B40D360E2
:1003C0001EE07B79012B0AD1134BDB68BA7901213E
:1003D00001FA02F21146104A0B43D36012E07B7916
:1003E000002B0FD10C4BDB68BA79012101FA02F224
:1003F000D2431146084A0B40D36003E000BF02E03D
:1004000000BF00E000BF00BF0C37BD4680BC704796
:1004100000080140000C01400010014080B500AF11
:10042000054B5B69044A43F001035361034B1B68AE
:10043000984700BF80BD00BF000401401C000020A1
:1004400080B500AF054B5B69044A43F0020353617A
:10045000034B5B68984700BF80BD00BF00040140AC
:100460001C00002080B500AF054B5B69044A43F0D7
:1004700004035361034B9B68984700BF80BD00BFD6
:10048000000401401C00002080B500AF054B5B69F3
:10049000044A43F008035361034BDB68984700BFED
:1004A00080BD00BF000401401C00002080B500AFEB
:1004B000054B5B69044A43F010035361034B1B690E
:1004C000984700BF80BD00BF000401401C00002011
:1004D00080B500AF264B5B6903F02003002B08D0EA
:1004E000234B5B69224A43F020035361214B5B6934
:1004F00098471F4B5B6903F04003002B08D01C4B4F
:100500005B691B4A43F0400353611A4B9B69984750
:10051000174B5B6903F08003002B08D0144B5B6919
:10052000134A43F080035361124BDB699847104B29
:100530005B6903F48073002B08D00D4B5B690C4A98
:1005400043F4807353610B4B1B6A9847084B5B69FC
:1005500003F40073002B08D0054B5B69044A43F495
:1005600000735361034B5B6A984700BF80BD00BFB7
:10057000000401401C00002080B500AF2D4B5B69DA
:1005800003F48063002B08D02A4B5B69294A43F4AB
:1005900080635361284B9B6A9847264B5B6903F441
:1005A0000063002B08D0234B5B69224A43F40063AD
:1005B0005361214BDB6A98471E4B5B6903F4805300
:1005C000002B08D01B4B5B691A4A43F480535361DC
:1005D000194B1B6B9847174B5B6903F40053002BB7
:1005E00008D0144B5B69134A43F400535361124B18
:1005F0005B6B98470F4B5B6903F48043002B08D07B
:100600000C4B5B690B4A43F4804353610A4B9B6B71
:100610009847084B5B6903F40043002B08D0054B57
:100620005B69044A43F400435361034BDB6B984717
:1006300000BF80BD000401401C00002080B400AF5A
:10064000044B81221A60044B00221A6000BFBD4691
:1006500080BC7047001002400410024080B483B098
:1006600000AF03460A46FB711346BB71FB791F2B93
:100670002AD8FB79022B1CD0022B25DC002B02D0C0
:10068000012B0BD020E0134B1B68BA79012101FA32
:1006900002F211460F4A0B43136015E00E4B1B6824
:1006A000BA79012101FA02F211460B4A0B43136099
:1006B0000AE00A4B1B68BA79012101FA02F21146DD
:1006C000064A0B43136000BF00BF0C37BD4680BC19
:1006D000704700BF141002401C1002401810024066
:1006E00080B483B000AF00237B60154B1B689B0870
:1006F00003F00303022B0ED0022B1AD8002B02D0DA
:10070000012B04D015E00F4B7B607B6812E00E4B91
:100710007B607B680EE00A4B1B689B0C03F00F03A9
:100720000A4AD35C1A460A4B02FB03F37B607B68E0
:1007300000E07B6818460C37BD4680BC704700BFA0
:100740000410024000127A000024F400340E000865
:1007500000093D0080B500AFFFF7C2FF0246054B20
:100760001B681B0903F00F030349CB5C22FA03F358
:10077000184680BD04100240240E000880B500AF6A
:10078000FFF7E8FF0246054B1B681B0A03F007034F
:100790000349CB5C22FA03F3184680BD04100240E3
:1007A0001C0E000880B584B000AF7860396000236B
:1007B000FB810023BB817B683E4A934207D13E4ABE
:1007C0003B6813600C210220FFF748FF0AE07B68BA
:1007D0003A4A934206D1384A3B6853600E210120C1
:1007E000FFF73CFF3B681A88FB891343FB813B689A
:1007F0005A88FB891343FB813B689A88FB89134322
:10080000FB813B68DA88FB891343FB813B681A89CB
:10081000FB891343FB813B685A89FB891343FB81A6
:100820003B689B89042B05D13B689A89BB8913439C
:10083000BB810EE03B689B89002B05D13B689A8900
:10084000BB891343BB8104E03B689A89FB8913434E
:10085000FB813B68DA89FB891343FB813B681B8A78
:10086000002B19D03B681A8ABB891343BB817B6874
:10087000104A934206D1124B1B68114A43F02003E1
:10088000136009E07B680D4A934205D10C4B1B684D
:100890000B4A43F040031360FB8943F04003FB81A4
:1008A000FA897B681A60BA897B685A6000BF103782
:1008B000BD4680BD00300140580000200038004097
:1008C00004E100E080B485B000AFF860B960134681
:1008D000FB71BB681B881A46FB68DA60FB79002B4A
:1008E00006D100BFFB689B6803F00203002BF9D020
:1008F00000BF1437BD4680BC7047000080B582B091
:1009000000AF78607B68274A934246D1264B1B682C
:100910001B88042B23D1244B1B689B89002B02D0FE
:10092000042B06D00BE0042204210120FFF720FC59
:1009300005E0092204210120FFF71AFC00BF09226B
:1009400005210120FFF714FC042206210120FFF7F6
:100950000FFC092207210120FFF70AFC1DE0124BC2
:100960001B681B88002B18D10F4B1B689B89002B21
:1009700004D1042204210120FFF7FAFB04220521FF
:100980000120FFF7F5FB092206210120FFF7F0FB0C
:10099000042207210120FFF7EBFB00BF0837BD460B
:1009A00080BD00BF003001405800002080B582B0FB
:1009B00000AF134B9B685B0803F00103DAB23B798D
:1009C00062F300033B710E4B9B6803F00103DAB244
:1009D0003B7962F341033B71094B9B681B0903F0B0
:1009E0000103DAB23B7962F382033B71054B1B686A
:1009F0005B693879984700BF0837BD4680BD00BFA6
:100A0000003001405800002080B582B000AF134B89
:100A10009B685B0803F00103DAB23B7962F30003E1
:100A20003B710E4B9B6803F00103DAB23B7962F332
:100A300041033B71094B9B681B0903F00103DAB2C8
:100A40003B7962F382033B71054B1B685B69387924
:100A5000984700BF0837BD4680BD00BF0038004042
:100A60005800002080B487B000AFF860B9607A60A9
:100A7000384ABB681360FB68DB6843F40052FB68CC
:100A8000DA60FB68DB68BA6812781A43FB68DA60E0
:100A9000FB68DB68BA68127A1A43FB68DA60FB68A5
:100AA000DB68BA68527A1A43FB68DA60FB68DB6875
:100AB000BA68927A1A43FB68DA60BB685B681B010C
:100AC0007A68B2FBF3F319017A6813469B0013446A
:100AD0009A001A44BB685B689B00B2FBF3F2BB68E8
:100AE0005B681B017868B0FBF3F3642000FB03F341
:100AF000D31A1B01184AA2FB03235B0903F00F035F
:100B00000B437B61FB687A699A60BB68DB7A002BD8
:100B10001BD0FB68DB68BA68D27A1A43FB68DA60DC
:100B2000FB680E4A934206D10D4B1B680C4A43F0FA
:100B30002003136009E0FB680A4A934205D1084B81
:100B40001B68074A43F04003136000BF1C37BD46D3
:100B500080BC7047600000201F85EB5100380140C9
:100B600004E100E00044004080B485B000AFF860CC
:100B7000B9601346FB71FB79002B06D100BFFB68FF
:100B80001B6803F08003002BF9D0074B1B681B7A0E
:100B9000002B04D1BB681B88DAB2FB685A6000BF27
:100BA0001437BD4680BC70476000002080B485B01B
:100BB00000AFF860B9601346FB71FB79002B06D1DA
:100BC00000BFFB681B6803F02003002BF9D00F4B1C
:100BD0001B681B7A002B14D10C4B1B685B7A002B13
:100BE00007D1FB685B689BB2DBB29AB2BB681A8024
:100BF00007E0FB685B689BB203F07F039AB2BB68B7
:100C00001A8000BF1437BD4680BC704760000020CA
:100C100080B500AF024B1B68DB68984700BF80BD02
:100C20006000002080B400AF00BFBD4680BC7047AC
:100C300080B582B000AFFFF701FD0E210220FFF763
:100C40000DFD02210220FFF709FD00210220FFF720
:100C500005FDFFF793FD78607B6818460837BD46B1
:100C600080BD000080B582B000AF0122104911485C
:100C7000FFF79CFF00220E490E48FFF775FF0C4B53
:100C80001B88DBB29BB2FB80002204210120FFF70E
:100C90004BFBBB1D002219460748FFF713FE01223C
:100CA00004210120FFF740FB00BF0837BD4680BD8F
:100CB00064000020003801400030014080B58CB055
:100CC00000AFFFF7B5FFF8624FF416533B622023E5
:100CD00087F82730214BBB62002387F8253000239B
:100CE00087F82430002387F826300C233B7709222D
:100CF00009210120FFF73CFA04220A210120FFF715
:100D000037FA07F11C03FA6A19461548FFF7AAFEDD
:100D10000123FB810223BB8100237B8100233B81D4
:100D200010237B820423BB800023BB824FF44073DB
:100D30003B820023BB613B1D19460A48FFF732FD89
:100D40000848FFF7DBFD012204210120FFF710FA1C
:100D5000012204210120FFF7E7FAFEE7650C0008F5
:100D600000380140003001400D488546AFF3008057
:100D70000C480D490D4A002302E0D458C4500433F6
:100D8000C4188C42F9D30A4A0A4C002301E01360CC
:100D90000432A242FBD300F011F8FFF78FFFFEE709
:100DA0000028002000000020000000204C0E000859
:100DB0000000002068000020FEE7000070B500265B
:100DC0000C4D0D4C641BA410A64209D100F01AF87A
:100DD00000260A4D0A4C641BA410A64205D170BD22
:100DE00055F8043B98470136EEE755F8043B984721
:100DF0000136F2E7440E0008440E0008440E0008D5
:100E0000480E0008F8B500BFF8BC08BC9E46704705
:0C0E1000F8B500BFF8BC08BC9E46704757
:100E1C0000000000010203040000000000000000BC
:100E2C000102030406070809020304050607080962
:080E3C000A0B0C0D0E0F101043
:040E4400550100084C
:040E4800310100086C
:0400000508000D6979
:00000001FF
