:100000000C942A000C9434000C9434000C943400AA
:100010000C9434000C9434000C9434000C94340090
:100020000C9434000C9434000C9434000C94340080
:100030000C9434000C9434000C9434000C94340070
:100040000C9434000C9434000C9434000C94340060
:100050000C94340011241FBECFE5D8E0DEBFCDBF25
:100060000E9447000C945C000C94000087B3806BE6
:1000700087BBBE988DB181658DB908958FB9779B87
:10008000FECF08958FB9779BFECF8FB108950E9460
:1000900036008FEF8ABB20E048EC50E080E197E229
:1000A000FA013197F1F70197D9F72FB9779BFECF76
:0C00B0008FB18BBB2F5FF2CFF894FFCF15
:00000001FF
