:100000000C942A000C9434000C9434000C943400AA
:100010000C9434000C9434000C9434000C94340090
:100020000C9434000C9434000C9434000C94340080
:100030000C9434000C9434000C9434000C94340070
:100040000C9434000C9434000C9434000C94340060
:100050000C94340011241FBECFE5D4E0DEBFCDBF29
:100060000E9446000C9460000C940000BE9ABD985B
:10007000BC98BF9880E48DB90895779BFECF8FB16F
:1000800008958FB9779BFECF8FB108950E943600F7
:100090008FEF8ABB2FEF49E150E00CC0FA01319796
:1000A000F1F70197D9F72FB9779BFECF8FB18BBBB3
:1000B000215019F080E197E2F1CF80E090E00895BF
:0400C000F894FFCFE2
:00000001FF
