:100000000C942A000C9434000C9434000C943400AA
:100010000C9434000C9434000C9434000C94340090
:100020000C9434000C9434000C9434000C94340080
:100030000C9434000C9434000C9434000C94340070
:100040000C9434000C9434000C9434000C94340060
:100050000C94340011241FBECFE5D8E0DEBFCDBF25
:100060000E943F000C9471000C940000C4988FB95A
:10007000779BFECF6FB9779BFECFC49A08950F93FD
:100080001F93CF93DF9380EB87BB8FEF87BB88BB3A
:1000900081E58DB989E06FEF0E9436008BE067E063
:1000A0000E9436008AE06FE00E9436008CE061E03A
:1000B0000E94360060E001E0C8ECD0E007C0162FD7
:1000C0001F5F802F0E9436000F5F612F0930B8F349
:1000D00088E893E1FE013197F1F70197D9F701E044
:0600E000EECFF894FFCF03
:00000001FF
